:100000000C9418040C9449040C9449040C9449046D
:100010000C9449040C9449040C9449040C9449042C
:100020000C9449040C9449040C9449040C9449041C
:100030000C9449040C9449040C9449040C9449040C
:100040000C9449040C9449040C9449040C944904FC
:100050000C9449040C9449040C9449040C94490FE1
:100060000C9449040C9460130C942C140C944904C3
:100070000C9449040C9449040C9449040C944904CC
:100080000C9449040C9449040C9449040C944904BC
:100090000C9493130C946B140C9449040C94490421
:1000A0000C9449040C9449040C9449040C9449049C
:1000B0000C9449040C9449040C9449040C9449048C
:1000C0000C9449040C9449040C9449040C94C613F0
:1000D0000C94AA140C9449040C94F9130C94E9148C
:1000E0000C94490488108B107E108210C2108F105F
:1000F000931099109D10A110A710AB10AF10C21053
:10010000B510B910BD100C941E300C9439290C9404
:100110005A350C949B2F0C94A7100C9466330C94B6
:1001200062290C94A1180C94BD100C94C0180C9466
:10013000EB290C9432290C9431290C9470190C94ED
:10014000B70A0C94D02A0C943C2A0C9445290C94A0
:1001500088280C94DF340C949D100C94BD120C94E0
:100160008F100C948B100C9499100C94D9120C9441
:100170006F180C94972E0C94B5100C94AE2F0C9411
:10018000C2100C9458300C947E100C94B9100C943E
:1001900058180C9404130C94A1100C9485180C940A
:1001A00096300C94AC120C94CA180C947C2F0C94BE
:1001B000B2330C94AF100C945A2A0C94872F0C94E1
:1001C000F9120C94AD120C9458110C94D6200C9486
:1001D000AB100C94A7290C94E42F0C94B0150C943C
:1001E00082100C9493100C9488100C942F2B0C9468
:1001F00051290C94302B0C9461290000090A020843
:100200000B0C0D07060304010000000000000000B5
:1002100000000000000000000000000000000000DE
:1002200000000000000011100F000000000000009E
:1002300000000000000000000000000000000000BE
:1002400001021020200808102040102040800201E8
:1002500002010804020101020408102040808040CD
:1002600020100804020180040201804020100804CC
:10027000020108040201010204081020408001026A
:100280000408102040800505050507050808080832
:10029000020202020A0A080804040404010101011E
:1002A0000101010103030303030303030407070719
:1002B0000C0C0C0C0C0C0C0C0202020206060606BE
:1002C000060606060B0B0B0B0B0B0B0B000020009E
:1002D0002300260029002C002F003200000100001E
:1002E00003010601090100002200250028002B005F
:1002F0002E003100340002010000050108010B014D
:1003000000002100240027002A002D0030003300C7
:1003100001010000040107010A017C3C3E5E2B3D07
:100320003F2F5B5D3B2C2A225C0000000000003E5A
:100330005B4F5B3E3E6B4F6B3E1C3E7C3E1C183C55
:100340007E3C181C577D571C1C5E7F5E1C00183CB1
:100350001800FFE7C3E7FF0018241800FFE7DBE7FA
:10036000FF30483A060E2629792926407F050507E1
:10037000407F05253F5A3CE73C5A7F3E1C1C08083D
:100380001C1C3E7F14227F22145F5F005F5F060902
:100390007F017F006689956A606060606094A2FF5B
:1003A000A29408047E040810207E201008082A1C4D
:1003B00008081C2A08081E101010100C1E0C1E0C19
:1003C00030383E3830060E3E0E06000000000000B9
:1003D000005F00000007000700147F147F14242A28
:1003E0007F2A1223130864623649562050000807FA
:1003F0000300001C2241000041221C002A1C7F1C1B
:100400002A08083E0808008070300008080808081C
:10041000000060600020100804023E5149453E0083
:10042000427F400072494949462141494D331814E1
:10043000127F1027454545393C4A49493141211130
:1004400009073649494936464949291E0000140022
:100450000000403400000008142241141414141445
:10046000004122140802015909063E415D594E7CA3
:100470001211127C7F494949363E414141227F4158
:1004800041413E7F494949417F090909013E4141B6
:1004900051737F0808087F00417F41002040413FA1
:1004A000017F081422417F404040407F021C027FB0
:1004B0007F0408107F3E4141413E7F090909063E05
:1004C0004151215E7F0919294626494949320301D4
:1004D0007F01033F4040403F1F2040201F3F4038E6
:1004E000403F631408146303047804036159494DC1
:1004F00043007F4141410204081020004141417FF7
:10050000040201020440404040400003070800206C
:10051000545478407F28444438384444442838446C
:1005200044287F385454541800087E090218A4A4A3
:100530009C787F0804047800447D40002040403DC2
:10054000007F1028440000417F40007C047804783C
:100550007C080404783844444438FC1824241818CF
:10056000242418FC7C08040408485454542404042B
:100570003F44243C4040207C1C2040201C3C403018
:10058000403C44281028444C9090907C4464544C47
:1005900044000836410000007700000041360800A2
:1005A00002010204023C2623263C1EA1A161123A4C
:1005B0004040207A38545455592155557941225498
:1005C000547842215554784020545579400C1E529D
:1005D0007212395555555939545454593955545442
:1005E000580000457C410002457D420001457C40A9
:1005F0007D1211127DF0282528F07C5455450020ED
:1006000054547C547C0A097F4932494949323A445E
:1006100044443A324A4848303A4141217A3A4240C9
:100620002078009DA0A07D3D4242423D3D4040409B
:100630003D3C24FF2424487E4943662B2FFC2F2B6E
:10064000FF0929F620C0887E09032054547941000F
:1006500000447D413048484A32384040227A007A8E
:100660000A0A727D0D19317D2629292F282629296C
:10067000292630484D40203808080808080808088E
:10068000382F10C8ACBA2F102834FA00007B0000B5
:1006900008142A142222142A14085500550055AAB9
:1006A00055AA55AAFF55FF55FF000000FF00101086
:1006B00010FF00141414FF001010FF00FF1010F0C2
:1006C00010F0141414FC001414F700FF0000FF00D5
:1006D000FF1414F404FC141417101F10101F101F23
:1006E0001414141F00101010F0000000001F101050
:1006F00010101F10101010F010000000FF1010104C
:10070000101010101010FF10000000FF140000FF68
:1007100000FF00001F10170000FC04F41414171051
:10072000171414F404F40000FF00F7141414141444
:100730001414F700F7141414171410101F101F14BA
:100740001414F4141010F010F000001F101F00001B
:10075000001F14000000FC140000F010F01010FF47
:1007600010FF141414FF141010101F00000000F0EC
:1007700010FFFFFFFFFFF0F0F0F0F0FFFFFF0000C1
:10078000000000FFFF0F0F0F0F0F3844443844FCE8
:100790004A4A4A347E02020606027E027E026355FF
:1007A0004941633844443C04407E201E2006027EBA
:1007B000020299A5E7A5991C2A492A1C4C720172CC
:1007C0004C304A4D4D303048784830BC625A463D36
:1007D0003E494949007E0101017E2A2A2A2A2A44EB
:1007E000445F444440514A444040444A5140000020
:1007F000FF0103E080FF000008086B6B083612362B
:100800002436060F090F060000181800000010100B
:10081000003040FF0101001F01011E00191D1712C9
:10082000003C3C3C3C0000000000B70AB0155818E2
:1008300011241FBECFEFD1E2DEBFCDBF00E00CBF61
:1008400013E0A0E0B2E0EAECF8E700E00BBF02C082
:1008500007900D92A237B107D9F72BE1A2E7B3E0D9
:1008600001C01D92A039B207E1F714E0C8E1D4E05D
:1008700000E006C021970109802FFE010E941E3C66
:10088000C531D10780E00807A9F70E94DB0E0C9460
:10089000FE380C9400002F923F924F925F926F921D
:1008A0007F928F929F92AF92BF92CF92DF92EF9200
:1008B000FF920F931F93CF93DF93CDB7DEB7CA5448
:1008C000D1090FB6F894DEBF0FBECDBF9CAF8BAF82
:1008D0004B0158AF4FAB39011EAF0DAF2196FFAEA4
:1008E000EEAE21972396BFAEAEAE23970DB71EB7DF
:1008F00025961FAF0EAF25978E01045E1F4FC801CE
:100900000E942919ABADBCAD4D915C9121E06AE329
:1009100079E1CE0101960E94D6178B819C819F8F31
:100920008E8F8D819E81AF81B88588A399A3AAA35C
:10093000BBA389859A85AB85BC858CA39DA3AEA3FB
:10094000BFA38DE0FE013D96DE01989601900D92C9
:100950008A95E1F78A8D9B8D9EAB8DABC8010E9475
:10096000B119F82ECE0101960E943C19FF20C1F06A
:10097000F601EE0FFF1FFAAFE9AF1301412C512C26
:10098000E12CF12CAFA9B8ADCD01A0E0B0E02996E3
:100990008CAF9DAFAEAFBFAF2997702E612E29C02F
:1009A00061E172E088EF96E10E949511EBADFCAD3C
:1009B0006081718188EF96E10E94951167E288EF6E
:1009C00096E10E94C411A6C0D401ED91FC91028869
:1009D000F389E02DC40119950FB6F894BEBE0FBE81
:1009E000ADBEBFEFEB1AFB0AEFEF2E1A3E0A4E0A1E
:1009F0005E0A23960EAD1FAD2397E016F10609F4AB
:100A000082C0ADB6BEB60DB71EB729AD3AAD021B5A
:100A1000130B0FB6F8941EBF0FBE0DBF8DB79EB758
:100A2000019698AF8FABEBADFCADA281B381A20173
:100A300091010E94443C29960CAD1DAD2EAD3FADF9
:100A40002997060F171F281F391FB901A801440F46
:100A5000551F661F771F872D962D0E94471949AD98
:100A60005AAD6FA978AD872D962D0E943D1929ADFD
:100A70003AAD8217930781F062E272E088EF96E167
:100A80000E94B211872D962D0E949F190FB6F894DF
:100A9000BEBE0FBEADBE3EC0D401ED91FC9106803E
:100AA000F781E02DC401199501E010E0960121962F
:100AB0004EAD5FAD21974E0D5F1D6DAD7EADC40196
:100AC0000E94D8330FA918AD20E030E02C153D0569
:100AD00009F47ACFF801619171918F017627672728
:100AE0007627C4012A962FAF2A972B963FAF2B97D4
:100AF0000E9489342A962FAD2A972B963FAD2B97CB
:100B00002F5F3F4FE3CFCE014C960E949F19CE013D
:100B10004C9602C0CE014C960E943C1925962EADF3
:100B20003FAD25970FB6F8943EBF0FBE2DBFC65BF5
:100B3000DF4F0FB6F894DEBF0FBECDBFDF91CF9170
:100B40001F910F91FF90EF90DF90CF90BF90AF90EB
:100B50009F908F907F906F905F904F903F902F90DD
:100B600008954F925F926F927F92AF92BF92CF9211
:100B7000DF92EF92FF920F931F93CF93DF937C014D
:100B80008B016A01E9012B0177FF03C087E0480E62
:100B9000511C93E0559447949A95E1F7052C000C6D
:100BA0006608770889E0580E8DE3681E711C8881FD
:100BB0009981AA81BB81481659066A067B06B9F05D
:100BC0005E0184E0A80EB11C9501B301A201C6012B
:100BD0000E944D23811107C066E372E088EF96E121
:100BE0000E949511F1CF488259826A827B82C801A6
:100BF00068E070E00E94C93BFC0186E0EE0FFF1F39
:100C00008A95E1F7EC0FFD1F349680E4D70101903F
:100C10000D928A95E1F7DF91CF911F910F91FF908F
:100C2000EF90DF90CF90BF90AF907F906F905F90EC
:100C30004F9008952F923F924F925F926F927F92C2
:100C40008F929F92AF92BF92CF92DF92EF92FF92DC
:100C50000F931F93CF93DF93CDB7DEB7C454D10961
:100C60000FB6F894DEBF0FBECDBF6C011B015A0159
:100C700049013B018B01E12CF12C9401A501B70145
:100C8000CE0101960E94B105F801F182E082F601E1
:100C90004481558180819181480F591F2681378178
:100CA00082819381280F391F6D817E818F81988584
:100CB00024962FAF249725963FAF259722964FAFC6
:100CC000229723965FAF23970E94F50E2C0169812E
:100CD0007A818B819C810E941F0F24962FAD2497CF
:100CE00025963FAD2597821B930B22964FAD2297F9
:100CF00023965FAD239797FF03C091958195910946
:100D0000441A550A57FE03C0519441945108480EA5
:100D1000591EF80153824282FFEFEF1AFF0A0C5F5F
:100D20001F4F8AE2E81684E0F80609F0A6CF00E03B
:100D300010E09401A501B801CE0101960E94B10511
:100D4000698570E06F5F7F4F072E000C880B990B51
:100D50000E943F3A0E947A3A20E030E040E05FE3B0
:100D60000E944C3B6B017C0120E030E040E85FE3F7
:100D70000E94473B18162CF4C701B6010E94073A9F
:100D800002C061E070E08091501690915116681792
:100D9000790744F4F30111821082C801825B9E49F5
:100DA000938382830F5F1F4FF4E06F0E711C0A3232
:100DB00084E0180709F0BDCF6AE274E0C1010E9427
:100DC0007907CC5BDF4F0FB6F894DEBF0FBECDBF07
:100DD000DF91CF911F910F91FF90EF90DF90CF9017
:100DE000BF90AF909F908F907F906F905F904F904B
:100DF0003F902F900895CF92DF92EF92FF920F9342
:100E00001F93FC010081118122813381FB01C0808D
:100E1000D180E280F380FC01C082D182E282F38241
:100E2000FB0100831183228333831F910F91FF9075
:100E3000EF90DF90CF900895CF92DF92EF92FF92E4
:100E40000F931F93CF93DF936C017B018B010150B4
:100E5000104C000F111F000F111F080F191FCA019E
:100E6000880F991F880F991FB8018C0D9D1D0E9436
:100E7000FB0682E0E81AF108C0E0D0E0B701660F97
:100E8000771F660F771F6C0D7D1DF801228133815E
:100E9000FB01828193812817390720F4F1E0EF1AD2
:100EA000F10810C0CE01880F991F880F991F8C0D73
:100EB0009D1DFC014281538121962417350710F4B2
:100EC0000E94FB06EC16FD06CCF6CE01880F991F9A
:100ED000880F991FB8018C0D9D1D0E94FB06CE0145
:100EE000DF91CF911F910F91FF90EF90DF90CF9006
:100EF0000895EF92FF920F931F93CF93DF937C019E
:100F00008B0102301105ACF0A80155954795B80149
:100F1000C7010E941C07EC01BC01C7010E947907B0
:100F20000C1B1D0BCC0FDD1FCC0FDD1FEC0EFD1EAF
:100F3000E8CFDF91CF911F910F91FF90EF9008952F
:100F4000CF92EF92FF920F931F93CF93DF9300D036
:100F500000D0CDB7DEB78CE396E10E94C93500E042
:100F600010E024E130E049E150E067E271E086E51D
:100F700096E10E943A2C24E130E046E450E067E23A
:100F800071E086E596E10E943A2C24E130E043E7E7
:100F900050E067E271E086E596E10E943A2C24E198
:100FA00030E040EA50E067E271E086E596E10E94B9
:100FB0003A2C24E130E04DEC50E067E271E086E548
:100FC00096E10E943A2C83E0C82EE12CF12C0FEF21
:100FD0001FEF25E34DE050E06FE171E086E596E11B
:100FE0000E94812C24E34AE350E06FE171E086E542
:100FF00096E10E94812C23E347E650E06FE171E027
:1010000086E596E10E94812C22E344E950E06FE1FD
:1010100071E086E596E10E94812C21E341EC50E0ED
:101020006FE171E086E596E10E94812C26960FB66D
:10103000F894DEBF0FBECDBFDF91CF911F910F910E
:10104000FF90EF90CF9008954F925F926F927F92B2
:10105000AF92BF92CF92DF92EF92FF920F931F93C6
:10106000CF93DF9300D000D0CDB7DEB78CE396E10D
:101070000E94C93529833A834B835C836D837E83C9
:101080008D819E810A978F3D934008F00FC162E5E4
:1010900072E088EF96E10E94B21169817A81072E91
:1010A000000C880B990B1F921F921F922FEE2F930B
:1010B000A12CB12C650118E9E12E13E0F12E00E01E
:1010C00010E026E930E040E050E00E9482162B015B
:1010D0003C016B817C81072E000C880B990B1F92C1
:1010E0001F921F921F92BFE3AB2EBB24B394C12C5F
:1010F000D12C1CEAE12E13E0F12E00E010E028E7ED
:1011000030E040E050E00E9482166B017C0140E03C
:1011100050E060E070E086E596E10E946D2F0E944D
:10112000A0078EE0C81A81E0D80A0FB6F894DEBF97
:101130000FBECDBF93E3C916D10408F0B7C02EE1AE
:1011400042165104FCF40FEF1FEF24E130E049E1B7
:1011500050E067E271E086E596E10E943A2CE3E018
:10116000CE2EEE24EA94FE2C00E010E025E34DE0C4
:1011700050E06FE171E086E596E10E94812C85E008
:1011800090E090C0C201C1974097F8F40FEF1FEFB5
:1011900024E130E046E450E067E271E086E596E164
:1011A0000E943A2C63E0C62EEE24EA94FE2C00E066
:1011B00010E024E34AE350E06FE171E086E596E158
:1011C0000E94812C84E090E06DC0C2018B55910992
:1011D0004D97F8F40FEF1FEF24E130E043E750E0C4
:1011E00067E271E086E596E10E943A2C43E0C42E66
:1011F000EE24EA94FE2C00E010E023E347E650E002
:101200006FE171E086E596E10E94812C83E090E039
:1012100049C0C2018D5891094897F8F40FEF1FEFAC
:1012200024E130E040EA50E067E271E086E596E1D3
:101230000E943A2C23E0C22EEE24EA94FE2C00E019
:1012400010E022E344E950E06FE171E086E596E1C9
:101250000E94812C82E090E025C08AEB481A510858
:1012600099E14916510410F50FEF1FEF24E130E02A
:101270004DEC50E067E271E086E596E10E943A2C81
:1012800083E0C82EEE24EA94FE2C00E010E021E377
:1012900041EC50E06FE171E086E596E10E94812C1F
:1012A00081E090E0909351168093501626960FB6E9
:1012B000F894DEBF0FBECDBFDF91CF911F910F918C
:1012C000FF90EF90DF90CF90BF90AF907F906F90A6
:1012D0005F904F900895EF92FF920F931F93CF93DB
:1012E000DF93CDB7DEB7C054D1090FB6F894DEBF97
:1012F0000FBECDBF7C018C01060F171F000F111F01
:10130000000F111FF801EE57FA4F6081718122E73B
:1013100033E046E755E0CE0101960E94B105809189
:10132000541690915516E816F90629F040E050E061
:101330006FEF7FEF04C04FEF5FEF60E070E086E596
:1013400096E10E94732FF801EE57FA4F8281938144
:101350008E34914698F4A70183E0440F551F8A9577
:10136000E1F760E070E086E596E10E946D2FBE0136
:10137000665F7F4F86E596E10E949511C05CDF4F66
:101380000FB6F894DEBF0FBECDBFDF91CF911F9196
:101390000F91FF90EF900895AF92BF92CF92DF929E
:1013A000EF92FF920F931F93809132169091331614
:1013B0008B3021E0920759F48091361690913716C0
:1013C000803F26E09207C9F0805F9E4F0AC00497D5
:1013D000A1F48091361690913716009771F08051E4
:1013E0009140909337168093361688E890E090935A
:1013F00033168093321681E001C080E020913416CC
:10140000309135162B3E310559F420913816309124
:101410003916203197E03907D1F020513F4F0CC0E9
:1014200024303105A1F42091381630913916211558
:10143000310569F0205F3109309339162093381651
:1014400088E790E0909335168093341602C0882385
:10145000A9F14091361650913716413F26E05207C8
:1014600014F040EF56E057FF02C040E050E05093C8
:10147000371640933616209138163091391621319F
:1014800087E0380714F020E137E037FF02C020E0A2
:1014900030E0309339162093381680EFA82EB12C07
:1014A00090E1C92EDD24D394E12CF12C00E010E072
:1014B00066E576E180E092E00E944B041F910F9177
:1014C000FF90EF90DF90CF90BF90AF900895CF92B4
:1014D000DF92EF92FF92CF93DF93CDB7DEB7C05488
:1014E000D1090FB6F894DEBF0FBECDBF298589E2C2
:1014F00094E0233028F03FEFC31AD30AE30AF30A3B
:101500000197B9F760E672E088EF96E10E949511C5
:101510002AE030E0B701A60188EF96E1C05CDF4F1A
:101520000FB6F894DEBF0FBECDBFDF91CF91FF9015
:10153000EF90DF90CF900C949A128530910559F07E
:101540008430910559F08330910559F0029761F08C
:101550008AE294E008958AE990E008958EE892E0A6
:1015600008958BEA93E0089580E094E00895EF9267
:10157000FF920F932FEF49E06AE086E596E10E9423
:10158000AF308CE2E82EFF24F39405E029E348E332
:1015900064E08CE396E10E942337E6E7F5E01582EC
:1015A0001682118613860F91FF90EF900895AF92E7
:1015B000BF92CF92DF92EF92FF920F931F93EAE2D6
:1015C000F6E12281338140815181790184E0E81A7A
:1015D000F1088A010450110986819781280F391F6B
:1015E0002450310984819581480F591F4450510975
:1015F00089E0A82EB12C99E0C92ED12C66E576E1C0
:1016000080E092E00E944B04E2E3F6E142815381E4
:10161000445051096081718164507109E12C28EFB7
:10162000F22E09E010E029E030E086E596E10E9424
:1016300058301F910F91FF90EF90DF90CF90BF90A7
:10164000AF900895AF92BF92CF92DF92EF92FF9248
:101650000F931F93E12CF12C00EF10E020E330E01A
:1016600040E050E060E171E086E596E10E9458308C
:10167000E2E3F6E1268137814481558180EFA82E8F
:10168000B12C90E1C92EDD24D39400E010E066E592
:1016900076E180E092E00E944B040E94D70A10920B
:1016A0003B1610923A161F910F91FF90EF90DF902A
:1016B000CF90BF90AF9008950E94EA0F62E082E061
:1016C0000E94C31040E855E260E070E088EF96E1C8
:1016D0000E94281540E050E0BA0186E596E10E949C
:1016E00070316AE672E088EF96E10E94951166E03B
:1016F0008AE399E10E94C31681110DC062E872E08D
:1017000088EF96E10E94B2116AE872E088EF96E1F4
:101710000E94B211FFCF69EA72E088EF96E10E9461
:10172000951146E061E086E795E00E94BB218111BA
:1017300007C062E872E088EF96E10E94B211FFCF25
:1017400069ED72E088EF96E10E94B21163E086E5F0
:1017500096E10E94663360E086E596E10E94792F6B
:1017600088E890E0909333168093321688E790E0F3
:10177000909335168093341680E393E09093371658
:101780008093361680EC93E0909339168093381648
:1017900010927203109273031092740310927503E7
:1017A0000E94220B0C94A007CF93DF9340E050E0FF
:1017B00060E070E086E596E10E946D2F60E070E0E9
:1017C00086E596E10E943C2A22E733E046E755E0B1
:1017D00062E875E082E396E10E941A0610925516BF
:1017E00010925416C0E0D0E060E070E0CE010E949C
:1017F0006B092196CE31D105B9F781E090E0909345
:101800003B1680933A16DF91CF910895EF92FF92A5
:101810000F931F93CF93DF9387E30E944C10EC014B
:1018200086E30E944C107C0182E00E942F118C0103
:10183000C13082E0D8072CF0C13492E0D90744F4DB
:101840002CC080E092E08C1B9D0B813491052CF123
:10185000D250D7FDEF9626E0D595C7952A95E1F7AA
:101860002091341630913516C20FD31FC430D105E4
:1018700034F0CC3ED1052CF0CBEED0E002C0C4E079
:10188000D0E0D0933516C093341681E020912C1609
:1018900030912D16C217D30709F480E091E0E916C4
:1018A00092E0F90634F091E4E91692E0F90644F486
:1018B00034C020E032E02E193F09213431056CF1AB
:1018C00020E032E02E193F0937FF02C0215C3F4F74
:1018D00096E0359527959A95E1F74091321650910B
:1018E0003316240F351F243031053CF02C3091E0A5
:1018F00039072CF02BE031E002C024E030E03093D7
:1019000033162093321691E040912A1650912B16EF
:101910002417350709F490E0892B8823A1F00E9451
:10192000CC09809136169091371690932F1680939C
:101930002E16809138169091391690933116809317
:1019400030160E94D70A88E0E2E3F6E1AAE2B6E1A7
:1019500001900D928A95E1F7012B11F50E94D40BAD
:1019600081E090E090933B1680933A164AE050E075
:1019700061E070E088EF96E10E9476126DED72E012
:1019800088EF96E10E94B21182E00E942F11892B0C
:1019900039F46AE070E080E090E00E94C40FF4CF78
:1019A000DF91CF911F910F91FF90EF9008950F93CA
:1019B0001F93CF93DF938C0140E050E060E070E034
:1019C00086E596E10E946D2F60E070E086E596E185
:1019D0000E943C2A1092551610925416C0E0D0E096
:1019E000B801CE010E946B092196CE31D105C1F715
:1019F00081E090E090933B1680933A16DF91CF916F
:101A00001F910F9108950F931F93CF93DF938C0134
:101A100040E050E060E070E086E596E10E946D2FC6
:101A200060E070E086E596E10E943C2A8DE190E05E
:101A30009093551680935416C0E0D0E0B801CE01C3
:101A40000E946B092196CE31D105C1F781E090E06B
:101A500090933B1680933A16DF91CF911F910F918F
:101A60000895CF92DF92EF92FF920F931F93CF933F
:101A7000DF93CDB7DEB7C054D1090FB6F894DEBFFF
:101A80000FBECDBFC0905416D09055168091501601
:101A9000909151160E949D0A7C0187E30E944C1090
:101AA0002091541630915516E0915216F09153162C
:101AB000813442E09407C4F12F5F3F4F30935516B5
:101AC000209354163196F0935316E0935216CF019B
:101AD0006EE170E00E94C93B8EE1869F8001879F86
:101AE000100D1124C701801B910B8E3191057CF4E0
:101AF00037FD07C02817390734F09C012150310900
:101B000002C020E030E03093551620935416CF01E8
:101B10006EE170E00E94C93B892BA9F5EF2B99F18A
:101B2000C8010E94D70C2FC0803C914064F53197CA
:101B3000F0935316E0935216CF016EE170E00E94CD
:101B4000C93B8EE1869F8001879F100D1124215093
:101B500031092A3284E0380714F029E234E037FFF3
:101B600002C020E030E03093551620935416CF0188
:101B70006DE170E00E94C93B892B29F4EF2B19F02D
:101B8000C8010E94030D809152169091531697FD43
:101B900006C08E159F052CF0C701019702C080E09A
:101BA00090E0909353168093521680915416909122
:101BB0005516C816D90689F0B801C6010E946B09EE
:101BC000B80180915416909155160E946B0962E3FA
:101BD00070E080E090E00E94C40F82E00E942F112C
:101BE0008C01892B09F0D7C0E0915416F09155165D
:101BF000EE0FFF1FEE0FFF1FEE57FA4F608171814E
:101C000022E733E046E755E0CE0101960E94B10598
:101C10006D817E818F8198850E94F50E88389105AF
:101C200094F06D817E818F8198850E94F50E8937B1
:101C3000974064F46D817E818F8198850E94F50EB6
:101C40008858910905C080E090E002C080EF96E0DE
:101C5000909337168093361669817A818B819C81A7
:101C60000E941F0F88379105ACF069817A818B81C2
:101C70009C810E941F0F8938974054F469817A81B2
:101C80008B819C810E941F0F8C010857110902C093
:101C900000E117E010933916009338166D817E81AC
:101CA0008F8198850E94F50E209136163091371657
:101CB000821B930B0497E4F06D817E818F81988560
:101CC0000E94F50E2091361630913716821B930B29
:101CD0008C30914084F46D817E818F8198850E9443
:101CE000F50E2091361630913716821B930B05C0E6
:101CF00084E090E002C08BE091E0909333168093F3
:101D0000321669817A818B819C810E941F0F2091FC
:101D1000381630913916821B930B0497E4F06981D1
:101D20007A818B819C810E941F0F209138163091FF
:101D30003916821B930B8C3E910584F469817A815C
:101D40008B819C810E941F0F20913816309139168B
:101D5000821B930B05C084E090E002C08BEE90E004
:101D6000909335168093341688E0E2E3F6E1AAE218
:101D7000B6E101900D928A95E1F70E94220B82E074
:101D80000E942F11892B39F46AE070E080E090E026
:101D90000E94C40FF4CFC05CDF4F0FB6F894DEBFD3
:101DA0000FBECDBFDF91CF911F910F91FF90EF90AC
:101DB000DF90CF9008950E945C0B0E94670A80E03C
:101DC00090E020913A1630913B16232B59F4892B41
:101DD00011F40E94A0070E9424080E94060C81E0D2
:101DE00090E0EFCF0E94310DEACFAF92BF92CF9239
:101DF000DF92EF92FF920F931F931F921F9228E0A2
:101E00002F931F92A12CB12C650118E8E12E10E14F
:101E1000F12E03E51FEF24E337E842E55FEF0E9470
:101E200082160F900F900F900F90CB011F910F9182
:101E3000FF90EF90DF90CF90BF90AF900895AF925A
:101E4000BF92CF92DF92EF92FF920F931F931F9258
:101E50001F9228E02F931F92A12CB12C650119E14C
:101E6000E12E1FE7F12E01E510E022EC30ED41E517
:101E700050E00E9482160F900F900F900F90CB01B0
:101E80001F910F91FF90EF90DF90CF90BF90AF9098
:101E900008951F920F920FB60F9211242F933F9324
:101EA0008F939F93AF93BF9380918A1690918B16D7
:101EB000A0918C16B0918D163091891623E0230FD6
:101EC0002D3720F40196A11DB11D05C026E8230F72
:101ED0000296A11DB11D2093891680938A169093B6
:101EE0008B16A0938C16B0938D1680918E169091C0
:101EF0008F16A0919016B09191160196A11DB11D5B
:101F000080938E1690938F16A0939016B09391168F
:101F1000BF91AF919F918F913F912F910F900FBEE5
:101F20000F901F9018952FB7F89460918A167091B2
:101F30008B1680918C1690918D162FBF08953FB708
:101F4000F89480918E1690918F16A0919016B09172
:101F5000911626B5A89B05C02F3F19F00196A11D2B
:101F6000B11D3FBFBA2FA92F982F8827820F911D2F
:101F7000A11DB11DBC01CD0142E0660F771F881F76
:101F8000991F4A95D1F70895CF92DF92EF92FF9271
:101F9000CF93DF936B017C010E949F0FEB01C11473
:101FA000D104E104F10479F00E949F0F6C1B7D0BBA
:101FB000683E7340A0F381E0C81AD108E108F10837
:101FC000C851DC4FECCFDF91CF91FF90EF90DF90C5
:101FD000CF900895789484B5826084BD84B5816083
:101FE00084BD85B5826085BD85B5816085BDEEE621
:101FF000F0E0808181608083E1E8F0E01082808100
:1020000082608083808181608083E0E8F0E080816D
:1020100081608083E1EBF0E0808184608083E0EB8D
:10202000F0E0808181608083E1E9F0E0808182607E
:102030008083808181608083E0E9F0E0808181603D
:102040008083E1EAF0E0808182608083808181602A
:102050008083E0EAF0E0808181608083E1E2F1E06A
:10206000808182608083808181608083E0E2F1E012
:10207000808181608083EAE7F0E0808184608083F2
:10208000808182608083808181608083808180689C
:1020900080831092C1000895863308F08653909192
:1020A0007B00282F2870977F922B90937B0087705E
:1020B0002091060290E4299F90011124822B8093A5
:1020C0007C0080917A00806480937A0080917A000D
:1020D00086FDFCCF809178002091790090E0922BD2
:1020E000089590E0FC013197E131F10508F04AC014
:1020F0008827EE58FF4F8F4F0C941E3C8091800034
:102100008F7703C0809180008F7D80938000089539
:1021100084B58F7702C084B58F7D84BD089580918A
:10212000B0008F7703C08091B0008F7D8093B000A6
:102130000895809190008F7707C0809190008F7DE7
:1021400003C080919000877F8093900008958091D4
:10215000A0008F7707C08091A0008F7D03C0809181
:10216000A000877F8093A0000895809120018F7741
:1021700007C0809120018F7D03C080912001877F5F
:10218000809320010895CF93DF9390E0FC01E05C01
:10219000FD4F2491FC01EA57FD4F8491882361F1A2
:1021A00090E0880F991FFC01E050FD4FC591D4913C
:1021B000FC01EA51FD4FA591B491611109C09FB78F
:1021C000F8948881209582238883EC912E230BC07C
:1021D000623061F49FB7F8943881822F8095832311
:1021E0008883EC912E2B2C939FBF06C08FB7F89459
:1021F000E8812E2B28838FBFDF91CF9108951F9305
:10220000CF93DF93282F30E0F901E650FE4F849101
:10221000F901E05CFD4FD491F901EA57FD4FC491FB
:10222000CC23C9F0162F81110E947110EC2FF0E021
:10223000EE0FFF1FEA51FD4FA591B4918FB7F894AF
:10224000111105C09C91ED2FE095E92302C0EC919E
:10225000ED2BEC938FBFDF91CF911F910895CF931A
:10226000DF93282F30E0F901E650FE4F8491F90109
:10227000E05CFD4FD491F901EA57FD4FC491CC23A6
:1022800091F081110E947110EC2FF0E0EE0FFF1F12
:10229000E453FD4FA591B491EC91ED2381E090E0E2
:1022A00021F480E002C080E090E0DF91CF910895BA
:1022B000CF92DF92EF92FF920F931F93CF93DF9312
:1022C0006C01EB017B01E40EF51E00E010E0CE1581
:1022D000DF0561F06991D601ED91FC910190F081EB
:1022E000E02DC6011995080F191FF1CFC801DF9124
:1022F000CF911F910F91FF90EF90DF90CF900895B5
:102300006115710579F0FB0101900020E9F7319723
:10231000AF01461B570BDC01ED91FC910280F3816C
:10232000E02D199480E090E008950C948011DC0178
:10233000ED91FC910190F081E02D19940F931F9382
:10234000CF93DF93EC016DE00E9497118C016AE05E
:10235000CE010E949711800F911FDF91CF911F91A5
:102360000F9108950F931F93CF93DF93EC010E9479
:1023700080118C01CE010E949E11800F911FDF9170
:10238000CF911F910F9108950F931F93CF93DF93D8
:10239000EC010E9497118C01CE010E949E11800FCA
:1023A000911FDF91CF911F910F9108958F929F926E
:1023B000AF92BF92CF92DF92EF92FF920F931F9353
:1023C000CF93DF93CDB7DEB7A1970FB6F894DEBFFA
:1023D0000FBECDBF6C01142FE52FCB01022F19A228
:1023E000223008F40AE07E0121E2E20EF11C802E88
:1023F000912CA12CB12C612F7E2FA50194010E945C
:10240000DD3B029F1019112481E0E81AF1081A300F
:1024100014F4105D01C0195CF7011083122FE32F33
:10242000CA01232B242B252B31F7B701C6010E94AB
:102430008011A1960FB6F894DEBF0FBECDBFDF911D
:10244000CF911F910F91FF90EF90DF90CF90BF90B1
:10245000AF909F908F900895CF92DF92EF92FF926E
:102460000F931F93CF93DF93EC016A017B0121153A
:10247000310579F4E881F9810190F081E02D642F34
:10248000DF91CF911F910F91FF90EF90DF90CF9050
:1024900019942A303105E9F477FF1AC06DE20E94E1
:1024A00097118C0144275527BA014C195D096E0913
:1024B0007F092AE0CE010E94D611800F911FDF9183
:1024C000CF911F910F91FF90EF90DF90CF900895E3
:1024D0002AE0B701A601CE01DF91CF911F910F91A4
:1024E000FF90EF90DF90CF900C94D6110F931F9335
:1024F000CF93DF93EC019A01AB01770F660B770B5B
:102500000E942C128C01CE010E949E11800F911FFF
:10251000DF91CF911F910F9108952115310541F45D
:10252000DC01ED91FC910190F081E02D642F199474
:102530000C94D6110F931F93CF93DF93EC010E945D
:102540008D128C01CE010E949E11800F911FDF9190
:10255000CF911F910F9108950895FC012485358531
:10256000F901E05CFF4F80819181329620813181B9
:10257000821B930B8F7399270895DC011C96ED91B4
:10258000FC911D97DF01A05CBF4F2D913C911197ED
:1025900012968D919C9111972817390739F08D91DA
:1025A0009C91E80FF91F808190E008958FEF9FEFD5
:1025B0000895FC01A485B585FD01E05CFF4F2081F5
:1025C00031813296808191812817390779F0808195
:1025D0009181A80FB91F8C91208131812F5F3F4FCE
:1025E0002F7333273183208390E008958FEF9FEF7F
:1025F0000895FC0181A1882329F0A489B5898C91D3
:1026000086FFFBCF11A208950F931F93CF93DF9303
:10261000FC01A685B7858D01005C1F4FE80188810C
:10262000998101968F739927AD014E5B5F4FEA0147
:102630002881398182179307D1F3E80128813981F4
:10264000A20FB31F6C93A685B785A05CBF4F1196F0
:102650009C938E93A689B7892C9181E090E0078C9A
:1026600002C0880F991F0A94E2F7822B8C9381E0B5
:1026700081A30488F589E02D80818064808381E0D6
:1026800090E0DF91CF911F910F910895FB01E05CE5
:10269000FF4F208131812F5F3F4F2F733327DB01A5
:1026A000AE5BBF4F4D915C912417350741F04081DF
:1026B0005181DB01A40FB51F8C93318320830895D2
:1026C0001F920F920FB60F9211240BB60F922F93F9
:1026D0003F934F935F936F937F938F939F93AF93AA
:1026E000BF93EF93FF938091C00082FD07C080915C
:1026F000C60066EF78E10E94461302C08091C600D2
:10270000FF91EF91BF91AF919F918F917F916F91C9
:102710005F914F913F912F910F900BBE0F900FBE85
:102720000F901F9018951F920F920FB60F921124C1
:102730000BB60F922F933F934F935F936F937F93BB
:102740008F939F93AF93BF93EF93FF938091C800B4
:1027500082FD07C08091CE006EE678E10E944613AC
:1027600002C08091CE00FF91EF91BF91AF919F91F8
:102770008F917F916F915F914F913F912F910F902A
:102780000BBE0F900FBE0F901F9018951F920F92C7
:102790000FB60F9211240BB60F922F933F934F93C6
:1027A0005F936F937F938F939F93AF93BF93EF93B9
:1027B000FF938091D00082FD07C08091D60066EE25
:1027C00077E10E94461302C08091D600FF91EF91FD
:1027D000BF91AF919F918F917F916F915F914F9139
:1027E0003F912F910F900BBE0F900FBE0F901F9037
:1027F00018951F920F920FB60F9211240BB60F92DD
:102800002F933F934F935F936F937F938F939F93F8
:10281000AF93BF93EF93FF938091300182FD07C088
:10282000809136016EE577E10E94461302C08091E7
:102830003601FF91EF91BF91AF919F918F917F9161
:102840006F915F914F913F912F910F900BBE0F9021
:102850000FBE0F901F9018951F920F920FB60F92F8
:1028600011240BB60F922F933F938F939F93EF9367
:10287000FF932091F2183091F3188091F418909101
:10288000F5182817390731F48091C1008F7D8093A6
:10289000C10014C0E091F418F091F518EE54F74E11
:1028A00020818091F4189091F51801968F739927E3
:1028B0009093F5188093F4182093C600FF91EF9140
:1028C0009F918F913F912F910F900BBE0F900FBE54
:1028D0000F901F9018951F920F920FB60F92112410
:1028E0000BB60F922F933F938F939F93EF93FF938A
:1028F00020916A1830916B1880916C1890916D1826
:102900002817390731F48091C9008F7D8093C90061
:1029100014C0E0916C18F0916D18E65DF74E2081BF
:1029200080916C1890916D1801968F7399279093F0
:102930006D1880936C182093CE00FF91EF919F91BA
:102940008F913F912F910F900BBE0F900FBE0F9064
:102950001F9018951F920F920FB60F9211240BB66D
:102960000F922F933F938F939F93EF93FF93209119
:10297000E2173091E3178091E4179091E51728173B
:10298000390731F48091D1008F7D8093D10014C03C
:10299000E091E417F091E517EE55F84E2081809113
:1029A000E4179091E51701968F7399279093E51797
:1029B0008093E4172093D600FF91EF919F918F9120
:1029C0003F912F910F900BBE0F900FBE0F901F9055
:1029D00018951F920F920FB60F9211240BB60F92FB
:1029E0002F933F938F939F93EF93FF9320915A17C9
:1029F00030915B1780915C1790915D17281739070C
:102A000031F4809131018F7D8093310114C0E091C8
:102A10005C17F0915D17E65EF84E208180915C179F
:102A200090915D1701968F73992790935D1780930E
:102A30005C1720933601FF91EF919F918F913F9109
:102A40002F910F900BBE0F900FBE0F901F901895F7
:102A5000CF92DF92EF92FF920F931F93CF93DF936A
:102A6000EC016A017B014115514E6105710509F1C7
:102A7000EC89FD8981E090E008A002C0880F991FD1
:102A80000A94E2F7808360E079E08DE390E0A701AB
:102A900096010E94DD3B89019A010150110921092B
:102AA000310936952795179507959801011510411D
:102AB000A8F0EC89FD89108260E874E88EE190E06E
:102AC000A70196010E94DD3BDA01C9010197A10926
:102AD000B109B695A795979587959C01E889F989DD
:102AE0003083EA89FB89208319A2EE89FF8940811E
:102AF00081E090E09C010C8C02C0220F331F0A94ED
:102B0000E2F7242B2083EE89FF8940819C010D8C04
:102B100002C0220F331F0A94E2F7242B2083EE8990
:102B2000FF8940819C010E8C02C0220F331F0A9442
:102B3000E2F7242B2083EE89FF8920810F8C02C0CD
:102B4000880F991F0A94E2F7809582238083DF9192
:102B5000CF911F910F91FF90EF90DF90CF9008954C
:102B6000CF92DF92EF92FF92E8EFF6E113821282AA
:102B700088EEC82E83E0D82EE12CF12CC482D582B9
:102B8000E682F7826BEF72E07183608386EF98E1F3
:102B90009587848782EB98E19787868785EC90E01C
:102BA000918B808B84EC90E0938B828B80EC90E017
:102BB000958B848B81EC90E0978B868B82EC90E0F8
:102BC000918F808F86EC90E0938F828F44E0448FCA
:102BD00033E0358F27E0268F95E0978F81E080A343
:102BE000E6EDF6E113821282C482D582E682F78294
:102BF00071836083AEE6B8E1B587A487AAE2B8E145
:102C0000B787A687ADECB0E0B18BA08BACECB0E0A1
:102C1000B38BA28BA8ECB0E0B58BA48BA9ECB0E091
:102C2000B78BA68BAAECB0E0B18FA08FAEECB0E072
:102C3000B38FA28F448F358F268F978F80A3E4EBBD
:102C4000F6E113821282C482D582E682F782718312
:102C50006083A6EEB7E1B587A487A2EAB7E1B7879C
:102C6000A687A5EDB0E0B18BA08BA4EDB0E0B38B4F
:102C7000A28BA0EDB0E0B58BA48BA1EDB0E0B78B3B
:102C8000A68BA2EDB0E0B18FA08FA6EDB0E0B38F20
:102C9000A28F448F358F268F978F80A3E2E9F6E1CC
:102CA00013821282C482D582E682F78271836083A6
:102CB0006EE577E1758764876AE177E177876687F4
:102CC00065E371E0718B608B64E371E0738B628B01
:102CD00060E371E0758B648B61E371E0778B668BE9
:102CE00062E371E0718F608F66E371E0738F628FD2
:102CF000448F358F268F978F80A3FF90EF90DF90C2
:102D0000CF9008954F925F926F927F92AF92BF9251
:102D1000CF92DF92EF92FF920F931F93CF93DF93A7
:102D2000CDB7DEB729013A019B01AC012419350961
:102D3000460957098A899B89AC89BD89BC01CD01A7
:102D40006A197B098C099D090E94B93BA80197016A
:102D500024193509460957090E94FF3BCA01B901E8
:102D60006A0D7B1D8C1D9D1DDF91CF911F910F91D1
:102D7000FF90EF90DF90CF90BF90AF907F906F90DB
:102D80005F904F9008950F931F93CF93DF93EC01C3
:102D9000462F61E00E94BB21882391F08E01045FE1
:102DA0001F4F41E0BE01C8010E947127882351F0E6
:102DB000B801CE018A960E94971A91E081110AC04B
:102DC00090E008C040E0BE01C8010E94712788233E
:102DD000B9F3EECF892FDF91CF911F910F91089515
:102DE000FC01DB0112968D919C9113979383828352
:102DF0008DE193E09183808314968C911497848362
:102E000015968C911597858316964D915D916D91D0
:102E10007C91199746835783608771871A964D91E5
:102E20005D916D917C911D9742875387648775876B
:102E30001E964D915D916D917C9151974687578774
:102E4000608B718B52968C915297828B53964D91D9
:102E50005D916D917C915697438B548B658B768BEE
:102E600057964D915D916D917C915A97478B508FFC
:102E7000618F728F5B968D919C915C97948F838FFD
:102E800008954F925F926F927F928F929F92AF922E
:102E9000BF92CF92DF92EF92FF920F931F93CF9347
:102EA000DF93CDB7DEB7C754D1090FB6F894DEBFB4
:102EB0000FBECDBF6C015A014901665D7F4F7E0197
:102EC0008EE1E80EF11CC7010E94F0161C821B82E5
:102ED0008DE193E09A8389831E828501FE013196FC
:102EE0003F0127016FE270E0C8010E940E39009790
:102EF000D9F1F80120812F3219F40F5F1F4FF2CF63
:102F0000801B8D3008F08CE0E82EF12CA701B80171
:102F1000CE01CB960E941939EBE3F0E0EC0FFD1FD8
:102F2000EE0DFF1D1082C3010E94131D21E0AE01B2
:102F3000455C5F4FB201C3010E94471E811109C069
:102F4000F601138212828DE193E0918380831582D2
:102F500014C00E0D1F1DC2010E94131D942D852D3E
:102F60002301692E782EBECF0A191B09F4011183A3
:102F70000083B201C6010E94F016C601C95BDF4F93
:102F80000FB6F894DEBF0FBECDBFDF91CF911F917A
:102F90000F91FF90EF90DF90CF90BF90AF909F90F8
:102FA0008F907F906F905F904F900895CF92DF92B7
:102FB000FF920F931F93CF93DF93CDB7DEB7C95521
:102FC000D1090FB6F894DEBF0FBECDBF6C018A01E8
:102FD000F22E9E01285A3F4FCE01CB960E944117F8
:102FE0006A968EAD9FAD6A97080F191FF801808110
:102FF00081110AC0BE01655C7F4FCE0101960E941F
:10300000F01647E053E03EC019A218A28DE193E00C
:103010009F8F8E8F1BA221968FAD2197811104C0A7
:10302000C6010E94291934C082502F2DA801823078
:1030300048F464E679E1CE014E960E94471E811164
:103040000EC0EECFBE01655C7F4FCE014E960E9452
:10305000471E882329F3CE01CB960E94131D9F2D76
:10306000967041F049A95AA96BA97CA9CE014E9648
:103070000E94361CBE01625E7F4FCE0101960E9407
:10308000F016A801BE016F5F7F4FC6010E94F418C1
:10309000C601C75ADF4F0FB6F894DEBF0FBECDBFD3
:1030A000DF91CF911F910F91FF90DF90CF90089506
:1030B000EAE3F9E1158216821186138682E090E038
:1030C000A0E0B0E084879587A687B78713A215A6EE
:1030D00014A68DE193E093A782A717A60895CF9336
:1030E000DF931F92CDB7DEB76983DC01ED91FC91D0
:1030F0000280F381E02D41E050E0BE016F5F7F4F21
:1031000019950F90DF91CF910895CF93DF93EC0144
:10311000898D9A8D009739F481E090E09B838A83B2
:1031200080E090E00BC0FC01138212820E94351FE8
:10313000E98DFA8D22813381232B71F7DF91CF91B5
:103140000895FC01818D928D009711F00C94CC1C98
:103150000895CF93DF931F92CDB7DEB741E050E0E3
:10316000BE016F5F7F4F0E94E81A019719F48981B1
:1031700090E002C08FEF9FEF0F90DF91CF91089505
:10318000FC01818D928D009711F00C94A9188FEF9E
:103190009FEF08950F931F93CF93DF93FC01818DD1
:1031A000928D0097B9F0EF010E94A9188C010F3F92
:1031B0008FEF180791F0898D9A8DFC014285538518
:1031C0006485758541505109610971090E94361C59
:1031D000C80105C080E090E002C08FEF9FEFDF9153
:1031E000CF911F910F910895EF92FF920F931F932C
:1031F000CF93DF93EC017B018A011B821A8288EE58
:1032000093E0A0E0B0E08C839D83AE83BF838DE02C
:1032100093E0998388838DE190E00E949E379A8F96
:10322000898F009779F02DE1F701DC0101900D9273
:103230002A95E1F74CE050E0B801CE010C960E94CF
:103240001939188EDF91CF911F910F91FF90EF9058
:103250000895FC011382128288EE93E0A0E0B0E0B2
:1032600084839583A683B7838DE093E091838083E5
:10327000128E118E148608950895FC01818D928D11
:10328000009711F00C94E81A80E090E00895FC019A
:10329000818D928D009711F00C94361C80E008957A
:1032A000DC015996ED91FC915A97309729F062858F
:1032B00073858485958508956FEF7FEFCB01089521
:1032C000DC015996ED91FC915A97309729F063896A
:1032D000748985899689089560E070E0CB0108952E
:1032E000CF92DF92EF92FF92CF93DF93FC01218D7B
:1032F000328D232BD9F0EC010E9460196B017C0107
:10330000CE010E945019A7019601261B370B480BCE
:10331000590BDA01C901811530E89307A105B10500
:1033200038F08FEF9FE7A0E0B0E002C080E090E0CF
:10333000DF91CF91FF90EF90DF90CF900895CF93E2
:10334000DF93EC01898D9A8D009741F00E94131D47
:10335000898D9A8D0E9433381A8E198EDF91CF9104
:103360000895DC015996ED91FC915A97309721F020
:1033700081E09581911101C080E00895CF93DF93A2
:10338000EC019C012A5F3F4F41E050E060E070E0BB
:103390008B8D9C8D0E9406268823A1F08F89988DA5
:1033A000A98DBA8D892B8A2B8B2B59F48E819F8105
:1033B000A885B9858F8B988FA98FBA8F8C818068EB
:1033C0008C8381E0DF91CF910895CF92DF92EF92CD
:1033D000FF921F93CF93DF93EC010E94BE198111DE
:1033E00002C080E04AC0EB8DFC8DCE80DF80E88497
:1033F000F98482E0C81AD108E108F108058404C004
:10340000CC0CDD1CEE1CFF1C0A94D2F78685978538
:10341000A089B189C80ED91EEA1EFB1E148181E065
:10342000C81AD108E108F108112361F0C701B601FB
:10343000610F711D811D911D0E945524882389F201
:103440001150F2CFEB8DFC8D80E092E0A0E0B0E077
:10345000058404C0880F991FAA1FBB1F0A94D2F7C6
:103460004B895C896D897E89840F951FA61FB71FC4
:103470008B8B9C8BAD8BBE8B81E0DF91CF911F91AD
:10348000FF90EF90DF90CF900895CF93DF93EC0102
:10349000462F6E857F85888999890E941A24882302
:1034A00041F08A8920E2829FC00111248457964E00
:1034B00002C080E090E0DF91CF910895FB019B0175
:1034C000255F3F4F40E24193E217F307E1F7DC014C
:1034D00090E027E08D91882319F18E3219F0EAE10E
:1034E000F3E008C02A3009F198E02AE0F3CF3196E2
:1034F0003817D9F034913111FACF2917B0F03FEDD8
:10350000380F3E3590F431E0390FFB01E90FF11D22
:103510009FE9980F9A3108F480528083932FDACF75
:1035200081E0FB019081903209F480E008950F93CF
:103530001F93CF93DF93FC012581222311F080E0BC
:1035400042C08B01EC01FB0187898031B1F482E03C
:103550008D831F8A188E198E1A8E808D918DA0E012
:10356000B0E025E0880F991FAA1FBB1F2A95D1F74D
:103570008B8B9C8BAD8BBE8B15C0803201F783E0AB
:103580008D83FB01428D538D648D758D4F8B588FCC
:10359000698F7A8F9E012D5E3F4FC8010E94FD24E6
:1035A000882369F21C8F0B8F81E08C831E821F821F
:1035B000188619861A861B861C861D861E861F86FF
:1035C000188A198A1A8ADF91CF911F910F91089555
:1035D0002F923F924F925F926F927F928F929F9223
:1035E000AF92BF92CF92DF92EF92FF920F931F9311
:1035F000CF93DF93EC015B014A018D81811103C000
:103600008FEF9FEFD7C08C8180FFFACF4B885C880B
:103610006D887E884A855B856C857D85C401A0E0C8
:10362000B0E093018201041B150B260B370B081722
:1036300019072A073B0718F44201841A950A240146
:103640001E0126E0220E311C4114510409F47EC0F3
:103650004A855B856C857D856A0181E0D822ED8194
:103660008A019B0189E036952795179507958A95DC
:10367000D1F78B8D9C8DE23061F4FC01828D938DAE
:10368000A48DB58DBC01CD01600F711F821F931FEA
:103690003FC0FC0174807A947022C114D104C9F433
:1036A000711017C0452B462B472B49F48F89988DF5
:1036B000A98DBA8D8E839F83A887B9870AC04E8152
:1036C0005F816885798591010E947924882309F4B6
:1036D00097CFEB8DFC8D8E819F81A885B985029750
:1036E000A109B109058404C0880F991FAA1FBB1F37
:1036F0000A94D2F74685578560897189840F951F92
:10370000A61FB71FBC01CD01670D711D811D911D45
:1037100020E032E02C193D0932012415350508F46A
:1037200039012C8126FD04C06114F2E07F0679F591
:1037300000910702109108022091090230910A02BB
:10374000601771078207930719F421C0C40132C0C2
:10375000750183019601AB01BC0180918A1990919A
:103760008B190E943D23882309F44ACFA60CB71C6D
:103770008A859B85AC85BD85860D971DA11DB11DD4
:103780008A879B87AC87BD87461857085DCF40E086
:103790000E941A24882309F433CFF601E457F64E29
:1037A000D501CF01860D971DE817F907F9F2219190
:1037B0002D93FACFDF91CF911F910F91FF90EF9052
:1037C000DF90CF90BF90AF909F908F907F906F9041
:1037D0005F904F903F902F900895FF920F931F930B
:1037E000CF93DF931F92CDB7DEB7FC012581223046
:1037F00018F480E090E033C08C01FC0142855385D1
:103800006485758585E076956795579547958A9582
:10381000D1F7F42FFF70FF2E41E050E0BE016F5F43
:103820007F4FC8010E94E81A019719F4898190E03E
:1038300002C08FEF9FEF0196E1F2F8018285938538
:10384000A485B5854F96A11DB11D82879387A48756
:10385000B587F0E2FF9EC00111248457964E0F9069
:10386000DF91CF911F910F91FF9008958F929F92BA
:10387000AF92BF92CF92DF92EF92FF920F931F937E
:10388000CF93DF93EC018D81811102C080E077C07E
:103890000B891C892D893E890417150726073707D0
:1038A000A8F36A017B01823029F4CA86DB86EC86A4
:1038B000FD860DC0C114D104E104F10451F41E824F
:1038C0001F82188619861A861B861C861D8681E033
:1038D00056C08A849B84AC84BD84EB8DFC8D258589
:1038E00030E0275F3F4FB501A40141505109610904
:1038F0007109022E04C076956795579547950A94ED
:10390000D2F7D701C6010197A109B10904C0B69544
:10391000A795979587952A95D2F784179507A607B7
:10392000B70720F089288A288B2849F44F89588DB9
:10393000698D7A8D4E835F836887798704C0841B85
:10394000950BA60BB70B4C015D018E010A5F1F4F53
:1039500081149104A104B10409F4A7CF4E815F81C1
:103960006885798598018B8D9C8D0E94792491E0E2
:10397000891A9108A108B1088111EACF87CFDF9198
:10398000CF911F910F91FF90EF90DF90CF90BF905C
:10399000AF909F908F9008950F931F93CF93DF93D5
:1039A000EC018D818823C9F18C8187FF30C061E0F3
:1039B000CE010E94451A8C01892B79F18D818230CC
:1039C00048F48B899C89AD89BE89F801848F958FD5
:1039D000A68FB78F8F89988DA98DBA8DF801938F97
:1039E000828FB58BA48BE0918319F0918419309765
:1039F00059F0B8016A5E7F4FC80148961995F801E1
:103A0000808D918D938B828B8C818F778C83DF91CE
:103A1000CF911F910F910C94DF2380E0DF91CF9124
:103A20001F910F910895CF93DF93EC010E94CC1C5E
:103A3000882311F01D8281E0DF91CF9108954F928C
:103A40005F926F927F928F929F92AF92BF92EF920E
:103A5000FF920F931F93CF93DF9300D01F92CDB7A8
:103A6000DEB7FC0185818130E9F4848181FF1AC0D1
:103A700083899489A589B68984179507A607B7070E
:103A800088F0892B8A2B8B2B09F479C04A015B01C2
:103A90007F014284538464847584CF010E94361C64
:103AA000811102C080E06CC0F701838D948D811478
:103AB0009104A104B10471F44789508D618D728D18
:103AC0000E941B27882371F3F701178A108E118E2D
:103AD000128E3AC0F70146815781608571859E013B
:103AE0002F5F3F4F0E9479248823E1F249815A8158
:103AF0006B817C81F701838D948DFC0127892031B6
:103B000029F008EF1FEF2FEF3FE004C008EF1FEF91
:103B100020E030E04017510762077307A8F40E94C5
:103B20001B27882309F4BECFF701468157816085A2
:103B300071850FEF1FEF2FEF3FE0838D948D0E9473
:103B40006625882309F4AECFF701838A948AA58A73
:103B5000B68A848180688483C7010E94CC1C882334
:103B600009F4A0CFB501A401481459046A047B04E8
:103B700010F4B301A201C7010E94361C01C081E00C
:103B80000F900F900F900F90DF91CF911F910F9199
:103B9000FF90EF90BF90AF909F908F907F906F902D
:103BA0005F904F9008951F93CF93DF93EC0180E2D5
:103BB000689FF00111249F012457364ED9011B96AE
:103BC0009C91917129F0842F827411F080E05BC088
:103BD000142F6A8B8091070290910802A09109022C
:103BE000B0910A028E879F87A88BB98BE457F64E57
:103BF0004489558960E070E0BA01552744274F8B0E
:103C0000588F698F7A8F828D938DA0E0B0E0482B1A
:103C1000592B6A2B7B2B4F8B588F698F7A8FD90149
:103C20001B968C91887151F4848D958DA68DB78DDE
:103C30008B8B9C8BAD8BBE8B81E00DC0803131F6C0
:103C40009E012D5E3F4F8B8D9C8D0E94FD2488230D
:103C500009F4BCCF84E08D83812F8F708C831E820A
:103C60001F82188619861A861B861C861D8616FFDB
:103C700009C040E050E0BA01CE01DF91CF911F9121
:103C80000C941F1D81E0DF91CF911F910895CF9279
:103C9000DF92EF92FF920F931F93CF93DF93CDB7F5
:103CA000DEB72C970FB6F894DEBF0FBECDBFFC0178
:103CB00035813111C2C0D22E8B017C01BE016F5FF4
:103CC0007F4FCA010E945E1A882309F4B6C0F8012A
:103CD000838D948DF701948F838FF801168217825C
:103CE00010861186128613861486158630E0F80138
:103CF00082859385A485B5854389548965897689AC
:103D000084179507A607B70708F041C025E0B695C8
:103D1000A795979587952A95D1F7F82FFF70CF2E05
:103D2000C8013C870E94ED1B3C85009709F485C0C3
:103D3000FC012081222309F484C0253E99F04BE048
:103D400050E0BC01CE0101963C870E9401393C85C0
:103D5000892B69F68D2D8073803309F46EC04D2D4B
:103D60006C2D67C031116BC0F701C28A4091070208
:103D7000509108026091090270910A0246875787A4
:103D8000608B718BFC01808131E08111B0CF8D2D72
:103D90008271823109F051C0332341F061E0C701E3
:103DA0000E94451A8C01892B79F447C0F80185815E
:103DB000823009F442C0C8010E94E5198823E9F164
:103DC000F701128A0CE819E180E2F80111928A9554
:103DD000E9F78BE0FE013196D80101900D928A95AA
:103DE000E1F7E0918319F0918419309739F0B80127
:103DF000625F7F4FC8014096199509C081E298E241
:103E0000F801918B808B80E098E097878687F80196
:103E100080899189938B828B918F808F86859785FE
:103E2000978B868B0E94DF23882339F04D2DF70175
:103E30006289C7010E94D31D09C080E007C031E03C
:103E400056CF332309F490CF31E0A1CF2C960FB693
:103E5000F894DEBF0FBECDBFDF91CF911F910F91C0
:103E6000FF90EF90DF90CF9008952F923F924F9266
:103E70005F926F927F928F929F92AF92BF92CF92FA
:103E8000DF92EF92FF920F931F93CF93DF9300D0B7
:103E90001F92CDB7DEB78C016B013A01DC0115969C
:103EA0008C9115978130C9F414968C9181FF15C0BF
:103EB00082FF1DC0F801438954896589768982850E
:103EC0009385A485B58584179507A607B70779F06C
:103ED000C8010E94361C81110AC081E090E0D8011F
:103EE00013969C938E93129780E090E048C1430113
:103EF00084C0D8015B968D919C915C97FC015480A5
:103F00002FEF250D1A012B0139E056944794379471
:103F100027943A95D1F7522E52207A01F1E0FF22F0
:103F2000552009F476C080E092E08E199F09540173
:103F30008815990508F45C01D8015B962D913C9198
:103F40005C9716968D919D910D90BC91A02D029736
:103F5000A109B109F901058404C0880F991FAA1F9E
:103F6000BB1F0A94D2F74685578560897189840FF3
:103F7000951FA61FB71F9C01AD01250D311D411DC9
:103F8000511D19012A01A11432E0B30609F088C0BD
:103F90008091070290910802A0910902B0910A0253
:103FA00082159305A405B50559F48FEF9FEFDC0149
:103FB0008093070290930802A0930902B0930A022B
:103FC0009601B201A10180918A1990918B190E94EA
:103FD0009123882309F481CF9EEFD91A8A189B0870
:103FE000F80182859385A485B5858A0D9B1DA11D49
:103FF000B11D82879387A487B587D8011A964D9102
:104000005D916D917C911D978114910409F071CFA0
:1040100087C0E114F10409F086CF16964D915D91A9
:104020006D917C911997411551056105710559F400
:1040300057968D919D910D90BC91A02D0097A10553
:10404000B10541F521C09E012F5F3F4F0E947924A9
:10405000882309F44ACF89819A81AB81BC81F80118
:10406000238D348DF9012789203129F048EF5FEF46
:104070006FEF7FE004C048EF5FEF60E070E084170F
:104080009507A607B70730F0C8010E94BE19811135
:104090004ACF23CFF80186839783A087B18743CF88
:1040A000E114F10429F5D8011A964D915D916D91B5
:1040B0007C911D9753968D919D910D90BC91A02D53
:1040C000481759076A077B0798F00E94DF23882367
:1040D00009F403CF209207023092080240920902AD
:1040E00050920A028091891981608093891908C0D1
:1040F00041E0C201B1010E941A24882309F4EDCEE7
:10410000D601F701E457F64ECF018A0D9B1DE81743
:10411000F90719F02D912193FACFCA0CDB1C5ECF61
:104120005396CD90DD90ED90FC90569714968C911F
:10413000C416D506E606F70640F4F801438B548B07
:10414000658B768B806884830DC0209183193091B4
:104150008419232B39F06114710421F08068D8018F
:1041600014968C93F801848183FD02C0C30107C0BB
:10417000C8010E94CC1C882309F4AFCEF7CF0F9062
:104180000F900F900F90DF91CF911F910F91FF90A3
:10419000EF90DF90CF90BF90AF909F908F907F90E7
:1041A0006F905F904F903F902F900895CF93DF9343
:1041B0001F92CDB7DEB7698341E050E0BE016F5F6B
:1041C0007F4F0E94351F0F90DF91CF9108958EBDD4
:1041D0000DB407FEFDCF08958FEF0E94E7208EB546
:1041E000089561E0FC0184810C94FF1060E0FC0103
:1041F00084810C94FF10CF93DF93FC018681882388
:10420000D1F08FEF8EBD4FEF878190859C012F5F9E
:104210003F4F308727838130924028F40DB407FE4A
:10422000FDCF4EBDF1CF0DB407FEFDCFEF01CF01A5
:104230000E94F1201E82DF91CF910895673028F00F
:1042400026E1FC01258380E008958DB560FD02C064
:10425000663011F48E7F01C081608DBD8CB58C7F7E
:104260008CBD9CB562FD02C080E001C082E0669515
:104270006170692B862B8CBD81E008950F931F938D
:10428000CF93DF93EB010E94930F8B010E94EC20F0
:104290008F3F49F00E94930F601B710B6C177D07D5
:1042A000A8F380E001C081E0DF91CF911F910F91D1
:1042B0000895CF92DF92FF920F931F93CF93DF93D6
:1042C00000D01F92CDB7DEB76C01F62E29833A835A
:1042D0004B835C830E94FB20C6010E94F6206CE2A7
:1042E00071E0C6010E943E218F2D80640E94E7206C
:1042F00008E110E05C814B813A812981DA01C90132
:10430000002E04C0B695A795979587950A94D2F785
:1043100029833A834B835C830E94E720085011096C
:1043200029813A814B815C81083F8FEF180731F773
:10433000FF2029F0E8E0FE1204C087E803C085E909
:1043400001C08FEF0E94E72010E00E94EC20F601F0
:10435000828787FF04C01F3F11F01F5FF6CF0F90C9
:104360000F900F900F90DF91CF911F910F91FF90C1
:10437000DF90CF9008958F929F92AF92BF92EF926D
:10438000FF920F931F93CF93DF93EC01E62E1B86D2
:1043900019861E821D824C830E94930F8B0161E05F
:1043A0008C810E94C310CE010E94F12060E082E364
:1043B0000E94C31061E083E30E94C31061E084E3C4
:1043C0000E94C31061E085E30E94C31061E085E3B1
:1043D0000E94FF1083E58CBD8DB58E7F8DBD2AE0D8
:1043E000F22E8FEF0E94E720FA94F110FACFCE015F
:1043F0000E94F62020E030E0A90160E0CE010E949A
:104400005921F82E8A8781E0F81649F00E94930F0F
:10441000601B710B613D774068F381E04CC02AEA74
:1044200031E040E050E068E0CE010E94592182FF77
:1044300002C0FB860EC094E0F92E0E94EC208A8711
:10444000FA94F110FACF8A3A11F082E034C082E097
:104450008B878B85823021F0812C912C540105C0F3
:10446000812C912CA12C80E4B82E20E030E0A90111
:1044700067E3CE010E945921A501940169E2CE01B2
:104480000E9459218A87882349F00E94930F601B5C
:10449000710B613D774048F388E00DC08B85823019
:1044A00039F520E030E0A9016AE3CE010E945921EC
:1044B000882389F086E08D83CE010E94F12080E080
:1044C000DF91CF911F910F91FF90EF90BF90AF9030
:1044D0009F908F9008950E94EC20807C803C11F486
:1044E00083E08B870E94EC200E94EC200E94EC204D
:1044F000CE010E94F1206E2DCE01DF91CF911F9150
:104500000F91FF90EF90BF90AF909F908F900C9481
:104510001E210F931F93CF93DF93EC010E94930F03
:104520008B010E94EC208A878F3F49F40E94930FF1
:10453000601B710B6D327140A0F38FE003C08E3FA2
:1045400039F08DE08D83CE010E94F12080E001C022
:1045500081E0DF91CF911F910F910895CF92DF926B
:10456000EF92FF920F931F93CF93DF93EC016901BA
:10457000C801820F931F8130924008F06FC08E8176
:10458000882371F088819981AA81BB8148175907D6
:104590006A077B0729F48F819885C816D90618F514
:1045A000488359836A837B838B85833039F089E024
:1045B000440F551F661F771F8A95D1F79A01AB01EB
:1045C00061E1CE010E945921882319F083E08D8397
:1045D00045C0CE010E948922882309F43FC0188675
:1045E0001F8281E08E838FEF8EBD2FEF8F819885A4
:1045F0008C159D0550F40DB407FEFDCF2EBD8F81A7
:104600009885019698878F83F1CFC8010197F701AC
:104610004FEF9F012E193F092817390738F40DB4C1
:1046200007FEFDCF2EB521934EBDF3CF0DB407FE8F
:10463000FDCF2EB5F701E80FF91F20838F819885F4
:10464000080F191F18870F838985882319F0011512
:10465000124048F0CE010E94FB2005C0CE010E940E
:10466000F12080E001C081E0DF91CF911F910F9197
:10467000FF90EF90DF90CF900895EF92FF920F930D
:104680001F930115110519F00E94AE2201C081E0AF
:104690001F910F91FF90EF900895EF92FF920F936B
:1046A0001F93790100E012E020E030E00E94AE228A
:1046B0001F910F91FF90EF900895CF93DF93EC013E
:1046C0006EBD20E030E00DB407FEFDCFFA01E20F31
:1046D000F31F80818EBD0DB407FEFDCF81818EBD9D
:1046E0002E5F3F4F211582E0380769F70DB407FEB2
:1046F000FDCF8FEF0E94E7208FEF0E94E7200E94FE
:10470000EC208A87982F9F71953039F081E18D8355
:10471000CE010E94F12080E001C081E0DF91CF91C5
:1047200008950F931F93CF93DF93EC0189014115F7
:1047300051056105710511F482E132C08B8583302A
:1047400039F089E0440F551F661F771F8A95D1F70E
:104750009A01AB0168E1CE010E945921882311F032
:1047600084E01EC0A8016EEFCE010E945D23882365
:10477000C1F068E572E0CE010E943E21811102C0C5
:1047800085E10EC020E030E0A9016DE0CE010E947D
:104790005921811104C00E94EC20882339F084E162
:1047A0008D83CE010E94F12080E004C0CE010E94E2
:1047B000F12081E0DF91CF911F910F9108958091B9
:1047C00089198823A9F1409107025091080260914C
:1047D000090270910A022CE839E180918A199091BE
:1047E0008B190E949123811102C080E008954091AD
:1047F0008519509186196091871970918819411512
:1048000051056105710591F02CE839E180918A1913
:1048100090918B190E949123882339F31092851966
:10482000109286191092871910928819109289197E
:1048300081E00895CF92DF92EF92FF92CF936B01C8
:104840007C01C42F8091070290910802A091090277
:10485000B0910A028C159D05AE05BF05D1F00E94EE
:10486000DF23811102C080E01AC02CE839E1B701D2
:10487000A60180918A1990918B190E944D2388235B
:1048800091F3C0920702D0920802E0920902F092DE
:104890000A0280918919C82BC093891981E0CF91B0
:1048A000FF90EF90DF90CF900895CF92DF92EF923C
:1048B000FF926B017C010E94DF238823A9F0ECE8C2
:1048C000F9E111928BE1EC38F807D9F7C0920702B1
:1048D000D0920802E0920902F0920A0280918919AE
:1048E00081608093891981E0FF90EF90DF90CF90F5
:1048F00008958F929F92AF92BF92CF92DF92EF92E4
:10490000FF920F931F93CF93DF93FC0181859285D4
:10491000A385B4850196A11DB11D84179507A6072F
:10492000B70710F480E05CC083899489A589B689B3
:10493000C789C03129F4852E962EA72EBB2409C025
:104940004A015B01C7E0B694A79497948794CA95EF
:10495000D1F7E9016A017B018F01BC01CD01680D2E
:10496000791D8A1D9B1D8090070290900802A090DF
:104970000902B0900A02681579058A059B0599F429
:10498000F80187898031A9F4B701A6015527662768
:104990007727440F551FFA01E457F64E8081918125
:1049A000A0E0B0E018C040E00E941A248111E8CFD6
:1049B000B9CFB701A6014F77552766277727440F50
:1049C000551F440F551FFA01E457F64E808191811F
:1049D000A281B381BF7088839983AA83BB8381E05E
:1049E000DF91CF911F910F91FF90EF90DF90CF90CB
:1049F000BF90AF909F908F9008954F925F926F926B
:104A00007F92AF92BF92CF92DF92EF92FF920F937D
:104A10001F93CF93DF9300D01F92CDB7DEB78C01E9
:104A200049835A836B837C835901C12CD12C760135
:104A3000412C82E0582E612C712C49815A816B8166
:104A40007C819E012F5F3F4FC8010E9479248823FB
:104A500051F1D301C201F801058404C0880F991FE8
:104A6000AA1FBB1F0A94D2F7C80ED91EEA1EFB1E4E
:104A700049815A816B817C818789803129F088EF57
:104A80009FEFAFEFBFE004C088EF9FEFA0E0B0E082
:104A9000481759076A077B0780F2F501C082D18267
:104AA000E282F38281E00F900F900F900F90DF91E0
:104AB000CF911F910F91FF90EF90DF90CF90BF901B
:104AC000AF907F906F905F904F9008954F925F925C
:104AD0006F927F928F929F92AF92BF92CF92DF920E
:104AE000EF92FF920F931F93CF93DF93EC016A0134
:104AF0007B0128013901423051056105710510F42F
:104B000080E073C089859A85AB85BC850196A11D1F
:104B1000B11D84179507A607B70790F38B889C886B
:104B2000AD88BE888F89803129F4BB27AF2D9E2D9B
:104B30008D2D09C0DB01CA0147E0B695A795979571
:104B400087954A95D1F7880E991EAA1EBB1E8091A3
:104B5000070290910802A0910902B0910A028816FA
:104B60009906AA06BB0679F48F898031A1F4DD2469
:104B7000EE24FF24C601880F991FFC01E457F64E6E
:104B80005182408219C040E0C501B4010E941A243C
:104B90008111EACFB5CFE894C7F8DD24EE24FF24D5
:104BA000C601880F991F880F991FFC01E457F64E24
:104BB00040825182628273828091891981608093E0
:104BC00089198A89823080F08D819E81AF81B88574
:104BD000880E991EAA1EBB1E809285199092861976
:104BE000A0928719B092881981E0DF91CF911F912F
:104BF0000F91FF90EF90DF90CF90BF90AF909F907C
:104C00008F907F906F905F904F9008952F923F927A
:104C10004F925F926F927F929F92AF92BF92CF928C
:104C2000DF92EF92FF920F931F93CF93DF93CDB755
:104C3000DEB760970FB6F894DEBF0FBECDBF5C0144
:104C400049875A876B877C871901D901CD90DD9000
:104C5000ED90FC90C114D104E104F10431F0BFEFF8
:104C6000CB1ADB0AEB0AFB0A10C0FC01C080D18022
:104C7000E280F3809924939409851A852B853C85DD
:104C8000013011052105310509F0912CF5018185CF
:104C90009285A385B4858C019D010F5F1F4F2F4F17
:104CA0003F4F0D871E872F87388B260137011D82C6
:104CB0001E821F821886F50181859285A385B485A1
:104CC0000D811E812F813885081719072A073B0798
:104CD00008F056C02D853E854F8558892415350529
:104CE0004605570550F482E0482E512C612C712C5A
:104CF00092E0C92ED12CE12CF12C9E012F5F3F4F69
:104D0000B301A201C5010E9479248823C9F1498118
:104D10005A816B817C81D301C2010196A11DB11D15
:104D2000452B462B472B19F06C017D010FC0AC01C0
:104D3000BD014C195D096E097F0909851A852B850E
:104D40003C85401751076207730779F02D813E813A
:104D50004F8158852F5F3F4F4F4F5F4F2D833E83CD
:104D60004F8358872C013D01A6CF0FEF1FEF2FEF88
:104D70003FE0B301A201C5010E946625811118C060
:104D800080E041C0D301C2010197A109B1098D831F
:104D90009E83AF83B88793018201AC01BD01C50139
:104DA0000E946625882361F34D805E806F80788441
:104DB000C414D504E604F70428F3D1014D915D91A4
:104DC0006D917C91411551056105710599F4F101D1
:104DD000C082D182E282F3829920A1F0FFEFCF1A44
:104DE000DF0AEF0AFF0AD501CD92DD92ED92FC9227
:104DF000139708C097018601C5010E94662581119D
:104E0000E6CFBECF81E060960FB6F894DEBF0FBE4E
:104E1000CDBFDF91CF911F910F91FF90EF90DF9069
:104E2000CF90BF90AF909F907F906F905F904F908A
:104E30003F902F900895AF92BF92CF92DF92EF9262
:104E4000FF920F931F93CF93DF9300D01F92CDB7A4
:104E5000DEB75C016A017B0182E090E0A0E0B0E097
:104E6000F50180839183A283B3839E012F5F3F4F1F
:104E7000B701A601C5010E947924882311F100E041
:104E800010E09801B701A601C5010E94662588239C
:104E9000C1F0C980DA80EB80FC80F5018789803120
:104EA00029F088EF9FEFAFEFBFE004C088EF9FEFDE
:104EB000A0E0B0E0C816D906EA06FB06B0F281E031
:104EC00001C080E00F900F900F900F90DF91CF9175
:104ED0001F910F91FF90EF90DF90CF90BF90AF9018
:104EE00008958F929F92AF92BF92CF92DF92EF92EE
:104EF000FF920F931F93CF93DF93EC01142F7093C6
:104F00008B1960938A19442369F1453010F080E0D1
:104F1000F2C040E060E070E0CB010E941A248823D8
:104F2000B1F320E1129FA00111244458564EFA011A
:104F3000E254FE4F80818F7751F73C9680819181BA
:104F4000A281B38184369105A105B10500F33497A0
:104F5000C080D180E280F380C114D104E104F10467
:104F600021F4D5CFC12CD12C760140E0C701B60188
:104F70000E941A24882359F28091971990919819C8
:104F80008115924021F690919C19992309F4BFCF85
:104F900020919A1930919B19232B09F4B8CF809155
:104FA0009919882309F4B3CF9A8B8C831D8690E0DE
:104FB00061E070E02D85E22FAB01022E02C0440FAC
:104FC000551F0A94E2F78417950731F031E0320F4C
:104FD0003D87283078F39BCF2091A2193091A319F7
:104FE0002115310519F040E050E008C02091B019BA
:104FF0003091B1194091B2195091B3192D833E836C
:105000004F83588780919A1990919B1946015701B7
:10501000880E991EA11CB11C8B8A9C8AAD8ABE8AFF
:1050200000919D1910919E19198F088FA0919C19BC
:10503000B0E00E94443C860E971EA81EB91E8A8EC0
:105040009B8EAC8EBD8E85E0000F111F8A95E1F717
:1050500001501E4F012F11270695800E911EA11C95
:10506000B11C8E869F86A88AB98A20919F1930919B
:10507000A0192115310521F0A90160E070E008C0F8
:105080004091AC195091AD196091AE197091AF1962
:10509000D701C60188199909AA09BB09840F951F70
:1050A000A61FB71F04C0B695A79597958795EA9553
:1050B000D2F789879A87AB87BC87853F2FE0920715
:1050C000A105B10510F48CE014C0853F9F4FA105E8
:1050D000B10510F480E10DC08091B8199091B91913
:1050E000A091BA19B091BB198A8F9B8FAC8FBD8FDD
:1050F00080E28F8B81E0DF91CF911F910F91FF9024
:10510000EF90DF90CF90BF90AF909F908F900895D9
:105110002F923F924F925F926F927F928F929F92C7
:10512000AF92BF92CF92DF92EF92FF920F931F93B5
:10513000CF93DF9300D0CDB7DEB74C017B836A837A
:105140006A01590117019801241B350B37FF03C071
:10515000319521953109C5014A815B81841B950BED
:1051600097FF03C091958195910951E0598382176A
:10517000930714F019820BC09A2D8B2D5801092F1B
:10518000182F9A818B81DB82CA82C92ED82E8A8100
:105190009B81A816B9065CF49C2D8D2D6801092F02
:1051A000182F9A818B81BB82AA82A92EB82E250145
:1051B000AA81BB814A1A5B0A38016C187D0877FE08
:1051C00003C0719461947108720157FE03C0BFEF70
:1051D000EB1AFB0AF594E794C016D1061CF00FEF0A
:1051E0001FEF1FC001E010E01CC0D401ED91FC9145
:1051F000B9810084F185E02D9101BB23C1F04A8182
:105200005B81B601C4011995E618F708F7FE04C0E2
:10521000C00ED11EE40CF51CEA81FB813196FB83A4
:10522000EA834A815B81A416B506FCF604C0A60198
:105230006A817B81E7CF0F900F900F90DF91CF9124
:105240001F910F91FF90EF90DF90CF90BF90AF90A4
:105250009F908F907F906F905F904F903F902F9096
:1052600008950895DC01ED91FC910480F581E02D15
:1052700019940F931F93DC01ED91FC91008CF18D3B
:10528000E02D19951F910F9108950F931F93DC0145
:10529000ED91FC91028CF38DE02D19951F910F91EA
:1052A0000895EF92FF920F931F93DC01ED91FC9113
:1052B000048CF58DE02D19951F910F91FF90EF90C3
:1052C00008950895AF92BF92CF92DF92EF92FF922E
:1052D0000F931F93CF93DF9300D01F92CDB7DEB70C
:1052E0005C016901DC01ED91FC910680F781E02D04
:1052F0004B835C8369837A831995D501ED91FC9189
:105300004B815C81C40ED51EB1E0CB1AD108008858
:10531000F189E02D7801860169817A819B01C501BF
:105320001995D501ED91FC910288F389E02DC50115
:105330000F900F900F900F90DF91CF911F910F91D1
:10534000FF90EF90DF90CF90BF90AF901994AF9205
:10535000BF92CF92DF92EF92FF920F931F93CF9362
:10536000DF9300D01F92CDB7DEB75C016901DC018D
:10537000ED91FC910680F781E02D4B835C8369837E
:105380007A831995D501ED91FC9169817A819B0110
:105390002C0D3D1D215031090088F189E02D780147
:1053A0004B815C818A01C5011995D501ED91FC9174
:1053B0000288F389E02DC5010F900F900F900F9098
:1053C000DF91CF911F910F91FF90EF90DF90CF90E1
:1053D000BF90AF9019944F925F926F927F928F928D
:1053E0009F92AF92BF92CF92DF92EF92FF920F9374
:1053F0001F93CF93DF931F921F92CDB7DEB76C013F
:105400005A0139014801DC01ED91FC910680F781D8
:10541000E02D69837A8319956981462E7A81572E0A
:10542000640C751CD601ED91FC91461457046CF484
:105430000484F585E02D87019401A501B201C60120
:105440001995BFEF4B1A5B0AEDCF0288F389E02D67
:10545000C6010F900F90DF91CF911F910F91FF9098
:10546000EF90DF90CF90BF90AF909F908F907F9004
:105470006F905F904F901994EF92FF920F931F934C
:10548000DC01ED91FC9111971A960D911C911B97DF
:1054900018962D913C911997048CF58DE02D7B0188
:1054A00040E050E060E070E019951F910F91FF908F
:1054B000EF900895CF92DF92EF92FF920F931F9398
:1054C000CF93DF9300D000D0CDB7DEB76C01DC0105
:1054D000ED91FC916217730789F4041715072CF4FA
:1054E000942F852FA801092F182F041B150B980145
:1054F0002F5F3F4F008CF18DE02D12C040175107F8
:1055000009F5261737072CF4962F872FB901292F75
:10551000382F261B370B2F5F3F4F028CF38DE02D6A
:105520008701C601199526960FB6F894DEBF0FBE07
:10553000CDBFDF91CF911F910F91FF90EF90DF9042
:10554000CF9008950680F781E02D2D833E834B8315
:105550005C8369837A831995D601ED91FC9100886B
:10556000F189E02D2D813E814B815C8169817A81B9
:10557000C6011995D601ED91FC910288F389E02DC1
:10558000C60126960FB6F894DEBF0FBECDBFDF91E1
:10559000CF911F910F91FF90EF90DF90CF901994D2
:1055A0006F927F928F929F92AF92BF92CF92DF9233
:1055B000EF92FF920F931F93CF93DF93EC014B0178
:1055C0005A0169013801E881F9810680F781E02DEF
:1055D0001995E881F9810684F785E02D8701960108
:1055E000A501B401CE011995E881F981A501460D07
:1055F000571D415051090684F785E02D9601B401ED
:10560000CE011995E881F9810484F585E02D930197
:10561000A501B401CE011995E881F981C80CD91C06
:10562000B601615071090484F585E02D9301A5014F
:10563000CE011995E881F9810288F389E02DCE0128
:10564000DF91CF911F910F91FF90EF90DF90CF905E
:10565000BF90AF909F908F907F906F901994089516
:10566000FC016370658B848195812681378161306F
:1056700039F0633029F09187808733872287089536
:1056800031872087938782870895FC0113821282D5
:1056900085E293E091838083758364835783468397
:1056A0007187608753874287158A15861486178607
:1056B000168681E0848B2FEF3FEF338B228B318B6B
:1056C000208B868B178A118E108E08952F923F9211
:1056D0004F925F926F927F928F929F92AF92BF9202
:1056E000CF92DF92EF92FF920F931F93CF93DF93AE
:1056F000CDB7DEB728970FB6F894DEBF0FBECDBF8B
:105700005C013B014A0138872F83FC82EB8281E0F8
:1057100090E02C01421A530AC90191958195910993
:105720009C01220F331F3A832983170133E0230E94
:10573000311CEE24E394F12C802F81708D83027054
:105740000E83C7010197EF81F8858E179F070CF034
:1057500078C057FC0CC0AF81B8851197B887AF836C
:10576000E981FA813296FA83E9834E0E5F1EC70102
:10577000880F991F0196480E591EFD81FF2359F18C
:10578000D501ED91FC912F813885220F331F2F5FBA
:105790003F4F8B819C81280F391F0484F585E02DB4
:1057A0008601A401AF81B8854A1B5B0BB701660D6A
:1057B000771DC5011995D501ED91FC910484F585FE
:1057C000E02D9101A4014E195F096F817885660D66
:1057D000771DC5011995BE81BB2361F1D501ED91FE
:1057E000FC912F813885220F331F2F5F3F4F8B8114
:1057F0009C81280F391F0484F585E02D8601A401C2
:10580000AF81B8854A1B5B0BB3016E197F09C501D7
:105810001995D501ED91FC910484F585E02D910158
:10582000A4014E195F09B3018F819885681B790B1C
:10583000C50119959FEFE91AF90AA2E02A0E311C59
:1058400080CF28960FB6F894DEBF0FBECDBFDF9194
:10585000CF911F910F91FF90EF90DF90CF90BF906D
:10586000AF909F908F907F906F905F904F903F9000
:105870002F9008956F927F928F929F92AF92BF92D6
:10588000CF92DF92EF92FF920F931F93CF93DF930C
:10589000EC014B013A0159016801E881F981068068
:1058A000F781E02D1995E881F9819501220F331FC9
:1058B0002F5F3F4FA3014A195B090484F585E02D52
:1058C000B401CE011995E12CF12C03E09501A3015F
:1058D000B401CE010E94662BE881F9810288F38928
:1058E000E02DCE01DF91CF911F910F91FF90EF90AE
:1058F000DF90CF90BF90AF909F908F907F906F90F0
:1059000019942F923F924F925F926F927F928F9253
:105910009F92AF92BF92CF92DF92EF92FF920F933E
:105920001F93CF93DF93CDB7DEB76C970FB6F89484
:10593000DEBF0FBECDBF9C8F8B8F5B011A011F8313
:105940000E833701C982DC0158964D915C915997BD
:105950004115510509F0E5C018968D919C91199754
:10596000681779070CF0CAC11A968D919C911B9704
:10597000281639060CF0C2C18C2C912CFB0136E0A4
:10598000C39EE00DF11D1124FB87EA871E161F063A
:105990000CF0B4C1C40133E0880F991F3A95E1F7C8
:1059A0009D878C87820D931D181619060CF0A6C1D1
:1059B00057968C91811103C0203B08F02F5FAB8D6F
:1059C000BC8DED91FC9111970680F781E02DCD0102
:1059D0002A8F19952A8DB5E02B9F90011124F5018E
:1059E0003596FF87EE872501BB82AA82A9014A1955
:1059F0005B09598B488BC10108969B8B8A8BE88980
:105A0000F989E40DF51DE65DFC4F949198873D8280
:105A10002C826101A885A0FF13C0AB8DBC8DED91D8
:105A2000FC91B981B13031F40084F185E02D2E81F3
:105A30003F8116C00284F385E02DEE80FF801AC0FE
:105A4000EE81FF816E167F06F1F0AB8DBC8DED917E
:105A5000FC91B981B13051F40084F185E02D9301BE
:105A6000A601B2018B8D9C8D19950DC00284F38522
:105A7000E02D7301840194014C815D816A817B81F9
:105A80008B8D9C8D1995E885E695E8872C813D8165
:105A9000280D391D3D832C833FEFC31AD30A4A8951
:105AA0005B89C416D50609F0B5CF8A819B81880D24
:105AB000991D9B838A839FEF491A590AAE85BF853A
:105AC0004A165B0609F09BCFEE81FF816E167F06BA
:105AD00009F4F2C0EB8DFC8DA081B181F981F13028
